:04000000A9EF1FF055
:103F52000001ACEF1FF0CDEC1FF0FFD78098010EEF
:103F6200BCEC1FF00D0E056EFB0EE82EFED7052EE3
:103F7200FCD700D01200E8CF04F0420EE82EFED7A4
:103F820000D004380F0B806E808A809A04500F0B89
:103F9200806E808A809A1200926A956A8098809ACE
:103FA200620E066E650EE82EFED7062EFCD700D0F6
:103FB200030E806E808A809A210E066E760EE82E9F
:103FC200FED7062EFCD700F0808A809AFA0E00F007
:103FD200E82EFDD7808A809AFA0E00F0E82EFDD7EF
:103FE200020E806E808A809A280EBCEC1FF00F0EA3
:0E3FF200BCEC1FF0AFEC1FF0060EBCEF1FF092
:00000001FF
